{
  "_format": "hh-sol-artifact-1",
  "contractName": "Lottery",
  "sourceName": "contracts/Lottery.sol",
  "abi": [
    {
      "inputs": [
        {
          "internalType": "uint256",
          "name": "_ticketPrice",
          "type": "uint256"
        },
        {
          "internalType": "address",
          "name": "_feeWallet",
          "type": "address"
        },
        {
          "internalType": "address",
          "name": "_vaultWallet",
          "type": "address"
        }
      ],
      "stateMutability": "payable",
      "type": "constructor"
    },
    {
      "anonymous": false,
      "inputs": [
        {
          "indexed": false,
          "internalType": "uint256",
          "name": "roundId",
          "type": "uint256"
        },
        {
          "indexed": true,
          "internalType": "address",
          "name": "feeWallet",
          "type": "address"
        },
        {
          "indexed": false,
          "internalType": "uint256",
          "name": "amount",
          "type": "uint256"
        }
      ],
      "name": "FeeDistributed",
      "type": "event"
    },
    {
      "anonymous": false,
      "inputs": [
        {
          "indexed": true,
          "internalType": "address",
          "name": "oldWallet",
          "type": "address"
        },
        {
          "indexed": true,
          "internalType": "address",
          "name": "newWallet",
          "type": "address"
        }
      ],
      "name": "FeeWalletUpdated",
      "type": "event"
    },
    {
      "anonymous": false,
      "inputs": [
        {
          "indexed": false,
          "internalType": "uint256",
          "name": "roundId",
          "type": "uint256"
        },
        {
          "indexed": true,
          "internalType": "address",
          "name": "winner",
          "type": "address"
        },
        {
          "indexed": false,
          "internalType": "uint256",
          "name": "prize",
          "type": "uint256"
        }
      ],
      "name": "PrizeDistributed",
      "type": "event"
    },
    {
      "anonymous": false,
      "inputs": [
        {
          "indexed": false,
          "internalType": "uint256",
          "name": "oldPrice",
          "type": "uint256"
        },
        {
          "indexed": false,
          "internalType": "uint256",
          "name": "newPrice",
          "type": "uint256"
        },
        {
          "indexed": false,
          "internalType": "uint256",
          "name": "timestamp",
          "type": "uint256"
        }
      ],
      "name": "TicketPriceUpdated",
      "type": "event"
    },
    {
      "anonymous": false,
      "inputs": [
        {
          "indexed": false,
          "internalType": "uint256",
          "name": "roundId",
          "type": "uint256"
        },
        {
          "indexed": true,
          "internalType": "address",
          "name": "buyer",
          "type": "address"
        },
        {
          "indexed": false,
          "internalType": "uint256",
          "name": "amount",
          "type": "uint256"
        },
        {
          "indexed": false,
          "internalType": "uint256",
          "name": "fee",
          "type": "uint256"
        },
        {
          "indexed": false,
          "internalType": "uint256",
          "name": "toVault",
          "type": "uint256"
        }
      ],
      "name": "TicketsPurchased",
      "type": "event"
    },
    {
      "anonymous": false,
      "inputs": [
        {
          "indexed": true,
          "internalType": "address",
          "name": "oldVault",
          "type": "address"
        },
        {
          "indexed": true,
          "internalType": "address",
          "name": "newVault",
          "type": "address"
        }
      ],
      "name": "VaultWalletUpdated",
      "type": "event"
    },
    {
      "inputs": [
        {
          "internalType": "uint256",
          "name": "_numberOfTickets",
          "type": "uint256"
        }
      ],
      "name": "buyTickets",
      "outputs": [],
      "stateMutability": "payable",
      "type": "function"
    },
    {
      "inputs": [],
      "name": "currentRoundId",
      "outputs": [
        {
          "internalType": "uint256",
          "name": "",
          "type": "uint256"
        }
      ],
      "stateMutability": "view",
      "type": "function"
    },
    {
      "inputs": [],
      "name": "feeWallet",
      "outputs": [
        {
          "internalType": "address",
          "name": "",
          "type": "address"
        }
      ],
      "stateMutability": "view",
      "type": "function"
    },
    {
      "inputs": [],
      "name": "getPotDetails",
      "outputs": [
        {
          "internalType": "uint256",
          "name": "vaultBalance",
          "type": "uint256"
        },
        {
          "internalType": "address",
          "name": "vaultAddress",
          "type": "address"
        },
        {
          "internalType": "uint256",
          "name": "drawTime",
          "type": "uint256"
        },
        {
          "internalType": "uint256",
          "name": "ticketsSold",
          "type": "uint256"
        }
      ],
      "stateMutability": "view",
      "type": "function"
    },
    {
      "inputs": [],
      "name": "isDrawOpen",
      "outputs": [
        {
          "internalType": "bool",
          "name": "isOpen",
          "type": "bool"
        },
        {
          "internalType": "string",
          "name": "status",
          "type": "string"
        }
      ],
      "stateMutability": "view",
      "type": "function"
    },
    {
      "inputs": [],
      "name": "owner",
      "outputs": [
        {
          "internalType": "address",
          "name": "",
          "type": "address"
        }
      ],
      "stateMutability": "view",
      "type": "function"
    },
    {
      "inputs": [
        {
          "internalType": "uint256",
          "name": "",
          "type": "uint256"
        },
        {
          "internalType": "uint256",
          "name": "",
          "type": "uint256"
        }
      ],
      "name": "roundParticipants",
      "outputs": [
        {
          "internalType": "address",
          "name": "",
          "type": "address"
        }
      ],
      "stateMutability": "view",
      "type": "function"
    },
    {
      "inputs": [
        {
          "internalType": "uint256",
          "name": "",
          "type": "uint256"
        }
      ],
      "name": "rounds",
      "outputs": [
        {
          "internalType": "uint256",
          "name": "startTime",
          "type": "uint256"
        },
        {
          "internalType": "uint256",
          "name": "endTime",
          "type": "uint256"
        },
        {
          "internalType": "uint256",
          "name": "drawTime",
          "type": "uint256"
        },
        {
          "internalType": "address",
          "name": "winner",
          "type": "address"
        },
        {
          "internalType": "uint256",
          "name": "prize",
          "type": "uint256"
        },
        {
          "internalType": "bool",
          "name": "finalized",
          "type": "bool"
        }
      ],
      "stateMutability": "view",
      "type": "function"
    },
    {
      "inputs": [],
      "name": "selectWinner",
      "outputs": [],
      "stateMutability": "nonpayable",
      "type": "function"
    },
    {
      "inputs": [
        {
          "internalType": "address",
          "name": "_newFeeWallet",
          "type": "address"
        }
      ],
      "name": "setFeeWallet",
      "outputs": [],
      "stateMutability": "nonpayable",
      "type": "function"
    },
    {
      "inputs": [
        {
          "internalType": "address",
          "name": "_newVaultWallet",
          "type": "address"
        }
      ],
      "name": "setVaultWallet",
      "outputs": [],
      "stateMutability": "nonpayable",
      "type": "function"
    },
    {
      "inputs": [],
      "name": "startNewDraw",
      "outputs": [],
      "stateMutability": "nonpayable",
      "type": "function"
    },
    {
      "inputs": [
        {
          "internalType": "uint256",
          "name": "",
          "type": "uint256"
        },
        {
          "internalType": "address",
          "name": "",
          "type": "address"
        }
      ],
      "name": "ticketCount",
      "outputs": [
        {
          "internalType": "uint256",
          "name": "",
          "type": "uint256"
        }
      ],
      "stateMutability": "view",
      "type": "function"
    },
    {
      "inputs": [],
      "name": "ticketFee",
      "outputs": [
        {
          "internalType": "uint256",
          "name": "",
          "type": "uint256"
        }
      ],
      "stateMutability": "view",
      "type": "function"
    },
    {
      "inputs": [],
      "name": "ticketPrice",
      "outputs": [
        {
          "internalType": "uint256",
          "name": "",
          "type": "uint256"
        }
      ],
      "stateMutability": "view",
      "type": "function"
    },
    {
      "inputs": [
        {
          "internalType": "uint256",
          "name": "_newPrice",
          "type": "uint256"
        }
      ],
      "name": "updateTicketPrice",
      "outputs": [],
      "stateMutability": "nonpayable",
      "type": "function"
    },
    {
      "inputs": [],
      "name": "vaultWallet",
      "outputs": [
        {
          "internalType": "address",
          "name": "",
          "type": "address"
        }
      ],
      "stateMutability": "view",
      "type": "function"
    },
    {
      "inputs": [],
      "name": "viewTickets",
      "outputs": [
        {
          "internalType": "address",
          "name": "playerAddress",
          "type": "address"
        },
        {
          "internalType": "uint256",
          "name": "playerTickets",
          "type": "uint256"
        }
      ],
      "stateMutability": "view",
      "type": "function"
    }
  ],
  "bytecode": "0x60806040526040516200331c3803806200331c8339818101604052810190620000299190620002ed565b600073ffffffffffffffffffffffffffffffffffffffff168273ffffffffffffffffffffffffffffffffffffffff16036200009b576040517f08c379a00000000000000000000000000000000000000000000000000000000081526004016200009290620003aa565b60405180910390fd5b600073ffffffffffffffffffffffffffffffffffffffff168173ffffffffffffffffffffffffffffffffffffffff16036200010d576040517f08c379a000000000000000000000000000000000000000000000000000000000815260040162000104906200041c565b60405180910390fd5b6000831162000153576040517f08c379a00000000000000000000000000000000000000000000000000000000081526004016200014a90620004b4565b60405180910390fd5b336000806101000a81548173ffffffffffffffffffffffffffffffffffffffff021916908373ffffffffffffffffffffffffffffffffffffffff16021790555081600160006101000a81548173ffffffffffffffffffffffffffffffffffffffff021916908373ffffffffffffffffffffffffffffffffffffffff16021790555080600260006101000a81548173ffffffffffffffffffffffffffffffffffffffff021916908373ffffffffffffffffffffffffffffffffffffffff1602179055508260038190555060646005846200022d919062000505565b6200023991906200057f565b600481905550505050620005b7565b600080fd5b6000819050919050565b62000262816200024d565b81146200026e57600080fd5b50565b600081519050620002828162000257565b92915050565b600073ffffffffffffffffffffffffffffffffffffffff82169050919050565b6000620002b58262000288565b9050919050565b620002c781620002a8565b8114620002d357600080fd5b50565b600081519050620002e781620002bc565b92915050565b60008060006060848603121562000309576200030862000248565b5b6000620003198682870162000271565b93505060206200032c86828701620002d6565b92505060406200033f86828701620002d6565b9150509250925092565b600082825260208201905092915050565b7f496e76616c6964206665652077616c6c65742061646472657373000000000000600082015250565b600062000392601a8362000349565b91506200039f826200035a565b602082019050919050565b60006020820190508181036000830152620003c58162000383565b9050919050565b7f496e76616c6964207661756c742077616c6c6574206164647265737300000000600082015250565b600062000404601c8362000349565b91506200041182620003cc565b602082019050919050565b600060208201905081810360008301526200043781620003f5565b9050919050565b7f5469636b6574207072696365206d75737420626520677265617465722074686160008201527f6e20300000000000000000000000000000000000000000000000000000000000602082015250565b60006200049c60238362000349565b9150620004a9826200043e565b604082019050919050565b60006020820190508181036000830152620004cf816200048d565b9050919050565b7f4e487b7100000000000000000000000000000000000000000000000000000000600052601160045260246000fd5b600062000512826200024d565b91506200051f836200024d565b92508282026200052f816200024d565b91508282048414831517620005495762000548620004d6565b5b5092915050565b7f4e487b7100000000000000000000000000000000000000000000000000000000600052601260045260246000fd5b60006200058c826200024d565b915062000599836200024d565b925082620005ac57620005ab62000550565b5b828204905092915050565b612d5580620005c76000396000f3fe6080604052600436106101095760003560e01c806390d49b9d11610095578063c0d77a8811610064578063c0d77a8814610320578063c41d945e14610349578063de26eadf14610386578063f02137c8146103c3578063f25f4b56146103ec57610109565b806390d49b9d146102755780639cbe5efd1461029e578063a0994c47146102c9578063ac483b93146102f457610109565b80635e83c67e116100dc5780635e83c67e1461018357806361f1c5ba146101b157806370b90e7d146101dc5780638c65c81f146102085780638da5cb5b1461024a57610109565b80631209b1f61461010e5780632f3666371461013957806333a99e041461015557806346fda30f1461016c575b600080fd5b34801561011a57600080fd5b50610123610417565b6040516101309190611daf565b60405180910390f35b610153600480360381019061014e9190611dfb565b61041d565b005b34801561016157600080fd5b5061016a610a0c565b005b34801561017857600080fd5b50610181610fef565b005b34801561018f57600080fd5b50610198611210565b6040516101a89493929190611e69565b60405180910390f35b3480156101bd57600080fd5b506101c661137d565b6040516101d39190611eae565b60405180910390f35b3480156101e857600080fd5b506101f16113a3565b6040516101ff929190611ec9565b60405180910390f35b34801561021457600080fd5b5061022f600480360381019061022a9190611dfb565b611402565b60405161024196959493929190611f0d565b60405180910390f35b34801561025657600080fd5b5061025f61146b565b60405161026c9190611eae565b60405180910390f35b34801561028157600080fd5b5061029c60048036038101906102979190611f9a565b61148f565b005b3480156102aa57600080fd5b506102b3611652565b6040516102c09190611daf565b60405180910390f35b3480156102d557600080fd5b506102de611658565b6040516102eb9190611daf565b60405180910390f35b34801561030057600080fd5b5061030961165e565b604051610317929190612057565b60405180910390f35b34801561032c57600080fd5b5061034760048036038101906103429190611f9a565b6117fb565b005b34801561035557600080fd5b50610370600480360381019061036b9190612087565b6119be565b60405161037d9190611daf565b60405180910390f35b34801561039257600080fd5b506103ad60048036038101906103a891906120c7565b6119e3565b6040516103ba9190611eae565b60405180910390f35b3480156103cf57600080fd5b506103ea60048036038101906103e59190611dfb565b611a31565b005b3480156103f857600080fd5b50610401611b4f565b60405161040e9190611eae565b60405180910390f35b60035481565b600660009054906101000a900460ff161561046d576040517f08c379a000000000000000000000000000000000000000000000000000000000815260040161046490612153565b60405180910390fd5b6001600660006101000a81548160ff0219169083151502179055506000600760006005548152602001908152602001600020905080600001544210156104e8576040517f08c379a00000000000000000000000000000000000000000000000000000000081526004016104df906121bf565b60405180910390fd5b806001015442111561052f576040517f08c379a00000000000000000000000000000000000000000000000000000000081526004016105269061222b565b60405180910390fd5b60008211610572576040517f08c379a000000000000000000000000000000000000000000000000000000000815260040161056990612297565b60405180910390fd5b60008260035461058291906122e6565b9050803410156105c7576040517f08c379a00000000000000000000000000000000000000000000000000000000081526004016105be90612374565b60405180910390fd5b600060646005836105d891906122e6565b6105e291906123c3565b9050600081836105f291906123f4565b90506000600160009054906101000a900473ffffffffffffffffffffffffffffffffffffffff1673ffffffffffffffffffffffffffffffffffffffff168360405161063c90612459565b60006040518083038185875af1925050503d8060008114610679576040519150601f19603f3d011682016040523d82523d6000602084013e61067e565b606091505b50509050806106c2576040517f08c379a00000000000000000000000000000000000000000000000000000000081526004016106b9906124ba565b60405180910390fd5b6000600260009054906101000a900473ffffffffffffffffffffffffffffffffffffffff1673ffffffffffffffffffffffffffffffffffffffff168360405161070a90612459565b60006040518083038185875af1925050503d8060008114610747576040519150601f19603f3d011682016040523d82523d6000602084013e61074c565b606091505b5050905080610790576040517f08c379a000000000000000000000000000000000000000000000000000000000815260040161078790612526565b60405180910390fd5b6000853461079e91906123f4565b905060008111156108575760003373ffffffffffffffffffffffffffffffffffffffff16826040516107cf90612459565b60006040518083038185875af1925050503d806000811461080c576040519150601f19603f3d011682016040523d82523d6000602084013e610811565b606091505b5050905080610855576040517f08c379a000000000000000000000000000000000000000000000000000000000815260040161084c90612592565b60405180910390fd5b505b600060096000600554815260200190815260200160002060003373ffffffffffffffffffffffffffffffffffffffff1673ffffffffffffffffffffffffffffffffffffffff168152602001908152602001600020540361092857600860006005548152602001908152602001600020339080600181540180825580915050600190039060005260206000200160009091909190916101000a81548173ffffffffffffffffffffffffffffffffffffffff021916908373ffffffffffffffffffffffffffffffffffffffff1602179055505b8760096000600554815260200190815260200160002060003373ffffffffffffffffffffffffffffffffffffffff1673ffffffffffffffffffffffffffffffffffffffff168152602001908152602001600020600082825461098a91906125b2565b925050819055503373ffffffffffffffffffffffffffffffffffffffff167f6b8e3a0ce967466a23c3a85c3bccbf7d17dcd52ef3650227e575ce2b571aee876005548a88886040516109df94939291906125e6565b60405180910390a2505050505050506000600660006101000a81548160ff02191690831515021790555050565b60008054906101000a900473ffffffffffffffffffffffffffffffffffffffff1673ffffffffffffffffffffffffffffffffffffffff163373ffffffffffffffffffffffffffffffffffffffff1614610a9a576040517f08c379a0000000000000000000000000000000000000000000000000000000008152600401610a9190612677565b60405180910390fd5b600660009054906101000a900460ff1615610aea576040517f08c379a0000000000000000000000000000000000000000000000000000000008152600401610ae190612153565b60405180910390fd5b6001600660006101000a81548160ff021916908315150217905550600060076000600554815260200190815260200160002090508060050160009054906101000a900460ff1615610b70576040517f08c379a0000000000000000000000000000000000000000000000000000000008152600401610b67906126e3565b60405180910390fd5b60006008600060055481526020019081526020016000208054905011610bcb576040517f08c379a0000000000000000000000000000000000000000000000000000000008152600401610bc29061274f565b60405180910390fd5b600080600860006005548152602001908152602001600020905060005b8180549050811015610ca4576009600060055481526020019081526020016000206000838381548110610c1e57610c1d61276f565b5b9060005260206000200160009054906101000a900473ffffffffffffffffffffffffffffffffffffffff1673ffffffffffffffffffffffffffffffffffffffff1673ffffffffffffffffffffffffffffffffffffffff1681526020019081526020016000205483610c8f91906125b2565b92508080610c9c9061279e565b915050610be8565b506000824244600143610cb791906123f4565b40604051602001610cca93929190612832565b6040516020818303038152906040528051906020012060001c610ced919061286f565b905060008060005b8480549050811015610dfe576009600060055481526020019081526020016000206000868381548110610d2b57610d2a61276f565b5b9060005260206000200160009054906101000a900473ffffffffffffffffffffffffffffffffffffffff1673ffffffffffffffffffffffffffffffffffffffff1673ffffffffffffffffffffffffffffffffffffffff1681526020019081526020016000205482610d9c91906125b2565b915083821115610deb57848181548110610db957610db861276f565b5b9060005260206000200160009054906101000a900473ffffffffffffffffffffffffffffffffffffffff169250610dfe565b8080610df69061279e565b915050610cf5565b50818660030160006101000a81548173ffffffffffffffffffffffffffffffffffffffff021916908373ffffffffffffffffffffffffffffffffffffffff16021790555060018660050160006101000a81548160ff0219169083151502179055506000600260009054906101000a900473ffffffffffffffffffffffffffffffffffffffff1673ffffffffffffffffffffffffffffffffffffffff16319050808760040181905550600160056000828254610eb991906125b2565b9250508190555060008373ffffffffffffffffffffffffffffffffffffffff1682604051610ee690612459565b60006040518083038185875af1925050503d8060008114610f23576040519150601f19603f3d011682016040523d82523d6000602084013e610f28565b606091505b5050905080610f6c576040517f08c379a0000000000000000000000000000000000000000000000000000000008152600401610f63906128ec565b60405180910390fd5b8373ffffffffffffffffffffffffffffffffffffffff167fdc1d0b6a7cbfa6f3b2d4325bab5a169b265ad0b2b4022fb550364f0dfeeb6a746001600554610fb391906123f4565b84604051610fc292919061290c565b60405180910390a250505050505050506000600660006101000a81548160ff021916908315150217905550565b60008054906101000a900473ffffffffffffffffffffffffffffffffffffffff1673ffffffffffffffffffffffffffffffffffffffff163373ffffffffffffffffffffffffffffffffffffffff161461107d576040517f08c379a000000000000000000000000000000000000000000000000000000000815260040161107490612677565b60405180910390fd5b600060055411156110fa5760076000600160055461109b91906123f4565b815260200190815260200160002060050160009054906101000a900460ff166110f9576040517f08c379a00000000000000000000000000000000000000000000000000000000081526004016110f090612981565b60405180910390fd5b5b60006007600060055481526020019081526020016000209050600081600001541461115a576040517f08c379a0000000000000000000000000000000000000000000000000000000008152600401611151906129ed565b60405180910390fd5b6000429050600062093a808261117091906125b2565b90506000610e108261118291906125b2565b905082846000018190555081846001018190555080846002018190555060008460030160006101000a81548173ffffffffffffffffffffffffffffffffffffffff021916908373ffffffffffffffffffffffffffffffffffffffff1602179055506000846004018190555060008460050160006101000a81548160ff02191690831515021790555050505050565b600080600080600080600860006005548152602001908152602001600020905060005b81805490508110156112f5576000600960006005548152602001908152602001600020600084848154811061126b5761126a61276f565b5b9060005260206000200160009054906101000a900473ffffffffffffffffffffffffffffffffffffffff1673ffffffffffffffffffffffffffffffffffffffff1673ffffffffffffffffffffffffffffffffffffffff16815260200190815260200160002054905080846112df91906125b2565b93505080806112ed9061279e565b915050611233565b50600260009054906101000a900473ffffffffffffffffffffffffffffffffffffffff1673ffffffffffffffffffffffffffffffffffffffff1631600260009054906101000a900473ffffffffffffffffffffffffffffffffffffffff1660076000600554815260200190815260200160002060020154849550955095509550505090919293565b600260009054906101000a900473ffffffffffffffffffffffffffffffffffffffff1681565b60008060096000600554815260200190815260200160002060003373ffffffffffffffffffffffffffffffffffffffff1673ffffffffffffffffffffffffffffffffffffffff1681526020019081526020016000205490503391509091565b60076020528060005260406000206000915090508060000154908060010154908060020154908060030160009054906101000a900473ffffffffffffffffffffffffffffffffffffffff16908060040154908060050160009054906101000a900460ff16905086565b60008054906101000a900473ffffffffffffffffffffffffffffffffffffffff1681565b60008054906101000a900473ffffffffffffffffffffffffffffffffffffffff1673ffffffffffffffffffffffffffffffffffffffff163373ffffffffffffffffffffffffffffffffffffffff161461151d576040517f08c379a000000000000000000000000000000000000000000000000000000000815260040161151490612677565b60405180910390fd5b600073ffffffffffffffffffffffffffffffffffffffff168173ffffffffffffffffffffffffffffffffffffffff160361158c576040517f08c379a000000000000000000000000000000000000000000000000000000000815260040161158390612a59565b60405180910390fd5b6000600160009054906101000a900473ffffffffffffffffffffffffffffffffffffffff16905081600160006101000a81548173ffffffffffffffffffffffffffffffffffffffff021916908373ffffffffffffffffffffffffffffffffffffffff1602179055508173ffffffffffffffffffffffffffffffffffffffff168173ffffffffffffffffffffffffffffffffffffffff167f362a006325d32978b283e449d254cfcf93e2cccc321603ead9a74238d8dbf36e60405160405180910390a35050565b60055481565b60045481565b600060606000600760006005548152602001908152602001600020905060008160000154036116c95760006040518060400160405280601c81526020017f4e6f206472617720686173206265656e2073746172746564207965740000000081525092509250506117f7565b8060050160009054906101000a900460ff16156117225760006040518060400160405280601f81526020017f43757272656e74206472617720686173206265656e20636f6d706c657465640081525092509250506117f7565b6000429050816000015481101561176c5760006117428360000154611b75565b6040516020016117529190612adb565b6040516020818303038152906040529350935050506117f7565b81600101548111156117b15760006117878360010154611b75565b6040516020016117979190612b27565b6040516020818303038152906040529350935050506117f7565b60008183600101546117c391906123f4565b905060016117d082611b75565b6040516020016117e09190612bbf565b604051602081830303815290604052945094505050505b9091565b60008054906101000a900473ffffffffffffffffffffffffffffffffffffffff1673ffffffffffffffffffffffffffffffffffffffff163373ffffffffffffffffffffffffffffffffffffffff1614611889576040517f08c379a000000000000000000000000000000000000000000000000000000000815260040161188090612677565b60405180910390fd5b600073ffffffffffffffffffffffffffffffffffffffff168173ffffffffffffffffffffffffffffffffffffffff16036118f8576040517f08c379a00000000000000000000000000000000000000000000000000000000081526004016118ef90612c2d565b60405180910390fd5b6000600260009054906101000a900473ffffffffffffffffffffffffffffffffffffffff16905081600260006101000a81548173ffffffffffffffffffffffffffffffffffffffff021916908373ffffffffffffffffffffffffffffffffffffffff1602179055508173ffffffffffffffffffffffffffffffffffffffff168173ffffffffffffffffffffffffffffffffffffffff167f699d1ec8955f62d1fd3da9ea35ea14b0aa71595239bbb9a18e7e60e301495f3560405160405180910390a35050565b6009602052816000526040600020602052806000526040600020600091509150505481565b600860205281600052604060002081815481106119ff57600080fd5b906000526020600020016000915091509054906101000a900473ffffffffffffffffffffffffffffffffffffffff1681565b60008054906101000a900473ffffffffffffffffffffffffffffffffffffffff1673ffffffffffffffffffffffffffffffffffffffff163373ffffffffffffffffffffffffffffffffffffffff1614611abf576040517f08c379a0000000000000000000000000000000000000000000000000000000008152600401611ab690612677565b60405180910390fd5b60008111611b02576040517f08c379a0000000000000000000000000000000000000000000000000000000008152600401611af990612c99565b60405180910390fd5b60006003549050816003819055507f64dda92e7d0c84adf768959c948b790f410cadfa99e1ac8abbd996b7df7323a4818342604051611b4393929190612cb9565b60405180910390a15050565b600160009054906101000a900473ffffffffffffffffffffffffffffffffffffffff1681565b606060006001611b8484611c43565b01905060008167ffffffffffffffff811115611ba357611ba2612cf0565b5b6040519080825280601f01601f191660200182016040528015611bd55781602001600182028036833780820191505090505b509050600082602001820190505b600115611c38578080600190039150507f3031323334353637383961626364656600000000000000000000000000000000600a86061a8153600a8581611c2c57611c2b612394565b5b04945060008503611be3575b819350505050919050565b600080600090507a184f03e93ff9f4daa797ed6e38ed64bf6a1f0100000000000000008310611ca1577a184f03e93ff9f4daa797ed6e38ed64bf6a1f0100000000000000008381611c9757611c96612394565b5b0492506040810190505b6d04ee2d6d415b85acef81000000008310611cde576d04ee2d6d415b85acef81000000008381611cd457611cd3612394565b5b0492506020810190505b662386f26fc100008310611d0d57662386f26fc100008381611d0357611d02612394565b5b0492506010810190505b6305f5e1008310611d36576305f5e1008381611d2c57611d2b612394565b5b0492506008810190505b6127108310611d5b576127108381611d5157611d50612394565b5b0492506004810190505b60648310611d7e5760648381611d7457611d73612394565b5b0492506002810190505b600a8310611d8d576001810190505b80915050919050565b6000819050919050565b611da981611d96565b82525050565b6000602082019050611dc46000830184611da0565b92915050565b600080fd5b611dd881611d96565b8114611de357600080fd5b50565b600081359050611df581611dcf565b92915050565b600060208284031215611e1157611e10611dca565b5b6000611e1f84828501611de6565b91505092915050565b600073ffffffffffffffffffffffffffffffffffffffff82169050919050565b6000611e5382611e28565b9050919050565b611e6381611e48565b82525050565b6000608082019050611e7e6000830187611da0565b611e8b6020830186611e5a565b611e986040830185611da0565b611ea56060830184611da0565b95945050505050565b6000602082019050611ec36000830184611e5a565b92915050565b6000604082019050611ede6000830185611e5a565b611eeb6020830184611da0565b9392505050565b60008115159050919050565b611f0781611ef2565b82525050565b600060c082019050611f226000830189611da0565b611f2f6020830188611da0565b611f3c6040830187611da0565b611f496060830186611e5a565b611f566080830185611da0565b611f6360a0830184611efe565b979650505050505050565b611f7781611e48565b8114611f8257600080fd5b50565b600081359050611f9481611f6e565b92915050565b600060208284031215611fb057611faf611dca565b5b6000611fbe84828501611f85565b91505092915050565b600081519050919050565b600082825260208201905092915050565b60005b83811015612001578082015181840152602081019050611fe6565b60008484015250505050565b6000601f19601f8301169050919050565b600061202982611fc7565b6120338185611fd2565b9350612043818560208601611fe3565b61204c8161200d565b840191505092915050565b600060408201905061206c6000830185611efe565b818103602083015261207e818461201e565b90509392505050565b6000806040838503121561209e5761209d611dca565b5b60006120ac85828601611de6565b92505060206120bd85828601611f85565b9150509250929050565b600080604083850312156120de576120dd611dca565b5b60006120ec85828601611de6565b92505060206120fd85828601611de6565b9150509250929050565b7f5265656e7472616e742063616c6c000000000000000000000000000000000000600082015250565b600061213d600e83611fd2565b915061214882612107565b602082019050919050565b6000602082019050818103600083015261216c81612130565b9050919050565b7f4c6f7474657279206861736e2774207374617274656400000000000000000000600082015250565b60006121a9601683611fd2565b91506121b482612173565b602082019050919050565b600060208201905081810360008301526121d88161219c565b9050919050565b7f4c6f74746572792068617320656e646564000000000000000000000000000000600082015250565b6000612215601183611fd2565b9150612220826121df565b602082019050919050565b6000602082019050818103600083015261224481612208565b9050919050565b7f4d75737420627579206174206c65617374206f6e65207469636b657400000000600082015250565b6000612281601c83611fd2565b915061228c8261224b565b602082019050919050565b600060208201905081810360008301526122b081612274565b9050919050565b7f4e487b7100000000000000000000000000000000000000000000000000000000600052601160045260246000fd5b60006122f182611d96565b91506122fc83611d96565b925082820261230a81611d96565b91508282048414831517612321576123206122b7565b5b5092915050565b7f496e73756666696369656e74207061796d656e74000000000000000000000000600082015250565b600061235e601483611fd2565b915061236982612328565b602082019050919050565b6000602082019050818103600083015261238d81612351565b9050919050565b7f4e487b7100000000000000000000000000000000000000000000000000000000600052601260045260246000fd5b60006123ce82611d96565b91506123d983611d96565b9250826123e9576123e8612394565b5b828204905092915050565b60006123ff82611d96565b915061240a83611d96565b9250828203905081811115612422576124216122b7565b5b92915050565b600081905092915050565b50565b6000612443600083612428565b915061244e82612433565b600082019050919050565b600061246482612436565b9150819050919050565b7f4661696c656420746f2073656e642066656520746f206665652077616c6c6574600082015250565b60006124a4602083611fd2565b91506124af8261246e565b602082019050919050565b600060208201905081810360008301526124d381612497565b9050919050565b7f4661696c656420746f2073656e6420746f207661756c74000000000000000000600082015250565b6000612510601783611fd2565b915061251b826124da565b602082019050919050565b6000602082019050818103600083015261253f81612503565b9050919050565b7f4661696c656420746f20726566756e6420657863657373000000000000000000600082015250565b600061257c601783611fd2565b915061258782612546565b602082019050919050565b600060208201905081810360008301526125ab8161256f565b9050919050565b60006125bd82611d96565b91506125c883611d96565b92508282019050808211156125e0576125df6122b7565b5b92915050565b60006080820190506125fb6000830187611da0565b6126086020830186611da0565b6126156040830185611da0565b6126226060830184611da0565b95945050505050565b7f4e6f7420746865206f776e657200000000000000000000000000000000000000600082015250565b6000612661600d83611fd2565b915061266c8261262b565b602082019050919050565b6000602082019050818103600083015261269081612654565b9050919050565b7f526f756e6420616c72656164792066696e616c697a6564000000000000000000600082015250565b60006126cd601783611fd2565b91506126d882612697565b602082019050919050565b600060208201905081810360008301526126fc816126c0565b9050919050565b7f4e6f207061727469636970616e74730000000000000000000000000000000000600082015250565b6000612739600f83611fd2565b915061274482612703565b602082019050919050565b600060208201905081810360008301526127688161272c565b9050919050565b7f4e487b7100000000000000000000000000000000000000000000000000000000600052603260045260246000fd5b60006127a982611d96565b91507fffffffffffffffffffffffffffffffffffffffffffffffffffffffffffffffff82036127db576127da6122b7565b5b600182019050919050565b6000819050919050565b6128016127fc82611d96565b6127e6565b82525050565b6000819050919050565b6000819050919050565b61282c61282782612807565b612811565b82525050565b600061283e82866127f0565b60208201915061284e82856127f0565b60208201915061285e828461281b565b602082019150819050949350505050565b600061287a82611d96565b915061288583611d96565b92508261289557612894612394565b5b828206905092915050565b7f4661696c656420746f2073656e64207072697a6520746f2077696e6e65720000600082015250565b60006128d6601e83611fd2565b91506128e1826128a0565b602082019050919050565b60006020820190508181036000830152612905816128c9565b9050919050565b60006040820190506129216000830185611da0565b61292e6020830184611da0565b9392505050565b7f50726576696f757320726f756e64206e6f742066696e616c697a656400000000600082015250565b600061296b601c83611fd2565b915061297682612935565b602082019050919050565b6000602082019050818103600083015261299a8161295e565b9050919050565b7f526f756e6420616c726561647920737461727465640000000000000000000000600082015250565b60006129d7601583611fd2565b91506129e2826129a1565b602082019050919050565b60006020820190508181036000830152612a06816129ca565b9050919050565b7f496e76616c6964206665652077616c6c65742061646472657373000000000000600082015250565b6000612a43601a83611fd2565b9150612a4e82612a0d565b602082019050919050565b60006020820190508181036000830152612a7281612a36565b9050919050565b7f447261772077696c6c2073746172742061742074696d657374616d703a200000815250565b600081905092915050565b6000612ab582611fc7565b612abf8185612a9f565b9350612acf818560208601611fe3565b80840191505092915050565b6000612ae682612a79565b601e82019150612af68284612aaa565b915081905092915050565b7f4472617720656e6465642061742074696d657374616d703a2000000000000000815250565b6000612b3282612b01565b601982019150612b428284612aaa565b915081905092915050565b7f44726177206973206f70656e2e2054696d652072656d61696e696e672028696e60008201527f207365636f6e6473293a20000000000000000000000000000000000000000000602082015250565b6000612ba9602b83612a9f565b9150612bb482612b4d565b602b82019050919050565b6000612bca82612b9c565b9150612bd68284612aaa565b915081905092915050565b7f496e76616c6964207661756c7420616464726573730000000000000000000000600082015250565b6000612c17601583611fd2565b9150612c2282612be1565b602082019050919050565b60006020820190508181036000830152612c4681612c0a565b9050919050565b7f5072696365206d7573742062652067726561746572207468616e203000000000600082015250565b6000612c83601c83611fd2565b9150612c8e82612c4d565b602082019050919050565b60006020820190508181036000830152612cb281612c76565b9050919050565b6000606082019050612cce6000830186611da0565b612cdb6020830185611da0565b612ce86040830184611da0565b949350505050565b7f4e487b7100000000000000000000000000000000000000000000000000000000600052604160045260246000fdfea264697066735822122098662bd3cdbbd2d128bbe2edfd868e6c07e7bac876e4f6977dcffa6732dd581764736f6c63430008140033",
  "linkReferences": {},
  "deployedLinkReferences": {}
}