{
  "_format": "hh-sol-artifact-1",
  "contractName": "Lottery",
  "sourceName": "contracts/Lottery.sol",
  "abi": [
    {
      "inputs": [
        {
          "internalType": "uint256",
          "name": "_ticketPrice",
          "type": "uint256"
        },
        {
          "internalType": "address",
          "name": "_feeWallet",
          "type": "address"
        },
        {
          "internalType": "address",
          "name": "_vaultWallet",
          "type": "address"
        }
      ],
      "stateMutability": "payable",
      "type": "constructor"
    },
    {
      "anonymous": false,
      "inputs": [
        {
          "indexed": false,
          "internalType": "uint256",
          "name": "roundId",
          "type": "uint256"
        },
        {
          "indexed": true,
          "internalType": "address",
          "name": "feeWallet",
          "type": "address"
        },
        {
          "indexed": false,
          "internalType": "uint256",
          "name": "amount",
          "type": "uint256"
        }
      ],
      "name": "FeeDistributed",
      "type": "event"
    },
    {
      "anonymous": false,
      "inputs": [
        {
          "indexed": true,
          "internalType": "address",
          "name": "oldWallet",
          "type": "address"
        },
        {
          "indexed": true,
          "internalType": "address",
          "name": "newWallet",
          "type": "address"
        }
      ],
      "name": "FeeWalletUpdated",
      "type": "event"
    },
    {
      "anonymous": false,
      "inputs": [
        {
          "indexed": false,
          "internalType": "uint256",
          "name": "roundId",
          "type": "uint256"
        },
        {
          "indexed": true,
          "internalType": "address",
          "name": "winner",
          "type": "address"
        },
        {
          "indexed": false,
          "internalType": "uint256",
          "name": "prize",
          "type": "uint256"
        }
      ],
      "name": "PrizeDistributed",
      "type": "event"
    },
    {
      "anonymous": false,
      "inputs": [
        {
          "indexed": false,
          "internalType": "uint256",
          "name": "oldPrice",
          "type": "uint256"
        },
        {
          "indexed": false,
          "internalType": "uint256",
          "name": "newPrice",
          "type": "uint256"
        },
        {
          "indexed": false,
          "internalType": "uint256",
          "name": "timestamp",
          "type": "uint256"
        }
      ],
      "name": "TicketPriceUpdated",
      "type": "event"
    },
    {
      "anonymous": false,
      "inputs": [
        {
          "indexed": false,
          "internalType": "uint256",
          "name": "roundId",
          "type": "uint256"
        },
        {
          "indexed": true,
          "internalType": "address",
          "name": "buyer",
          "type": "address"
        },
        {
          "indexed": false,
          "internalType": "uint256",
          "name": "amount",
          "type": "uint256"
        },
        {
          "indexed": false,
          "internalType": "uint256",
          "name": "fee",
          "type": "uint256"
        },
        {
          "indexed": false,
          "internalType": "uint256",
          "name": "toVault",
          "type": "uint256"
        }
      ],
      "name": "TicketsPurchased",
      "type": "event"
    },
    {
      "anonymous": false,
      "inputs": [
        {
          "indexed": true,
          "internalType": "address",
          "name": "oldVault",
          "type": "address"
        },
        {
          "indexed": true,
          "internalType": "address",
          "name": "newVault",
          "type": "address"
        }
      ],
      "name": "VaultWalletUpdated",
      "type": "event"
    },
    {
      "inputs": [
        {
          "internalType": "uint256",
          "name": "_numberOfTickets",
          "type": "uint256"
        }
      ],
      "name": "buyTickets",
      "outputs": [],
      "stateMutability": "payable",
      "type": "function"
    },
    {
      "inputs": [],
      "name": "currentRoundId",
      "outputs": [
        {
          "internalType": "uint256",
          "name": "",
          "type": "uint256"
        }
      ],
      "stateMutability": "view",
      "type": "function"
    },
    {
      "inputs": [],
      "name": "feeWallet",
      "outputs": [
        {
          "internalType": "address",
          "name": "",
          "type": "address"
        }
      ],
      "stateMutability": "view",
      "type": "function"
    },
    {
      "inputs": [],
      "name": "getPotDetails",
      "outputs": [
        {
          "internalType": "uint256",
          "name": "currentBalance",
          "type": "uint256"
        },
        {
          "internalType": "uint256",
          "name": "ticketsSold",
          "type": "uint256"
        },
        {
          "internalType": "uint256",
          "name": "startTime",
          "type": "uint256"
        },
        {
          "internalType": "uint256",
          "name": "endTime",
          "type": "uint256"
        },
        {
          "internalType": "uint256",
          "name": "drawTime",
          "type": "uint256"
        },
        {
          "internalType": "uint256",
          "name": "timeRemaining",
          "type": "uint256"
        },
        {
          "internalType": "bool",
          "name": "isFinalized",
          "type": "bool"
        },
        {
          "internalType": "address",
          "name": "winner",
          "type": "address"
        }
      ],
      "stateMutability": "view",
      "type": "function"
    },
    {
      "inputs": [],
      "name": "isDrawOpen",
      "outputs": [
        {
          "internalType": "bool",
          "name": "isOpen",
          "type": "bool"
        },
        {
          "internalType": "string",
          "name": "status",
          "type": "string"
        }
      ],
      "stateMutability": "view",
      "type": "function"
    },
    {
      "inputs": [],
      "name": "owner",
      "outputs": [
        {
          "internalType": "address",
          "name": "",
          "type": "address"
        }
      ],
      "stateMutability": "view",
      "type": "function"
    },
    {
      "inputs": [
        {
          "internalType": "uint256",
          "name": "",
          "type": "uint256"
        },
        {
          "internalType": "uint256",
          "name": "",
          "type": "uint256"
        }
      ],
      "name": "roundParticipants",
      "outputs": [
        {
          "internalType": "address",
          "name": "",
          "type": "address"
        }
      ],
      "stateMutability": "view",
      "type": "function"
    },
    {
      "inputs": [
        {
          "internalType": "uint256",
          "name": "",
          "type": "uint256"
        }
      ],
      "name": "rounds",
      "outputs": [
        {
          "internalType": "uint256",
          "name": "startTime",
          "type": "uint256"
        },
        {
          "internalType": "uint256",
          "name": "endTime",
          "type": "uint256"
        },
        {
          "internalType": "uint256",
          "name": "drawTime",
          "type": "uint256"
        },
        {
          "internalType": "address",
          "name": "winner",
          "type": "address"
        },
        {
          "internalType": "uint256",
          "name": "prize",
          "type": "uint256"
        },
        {
          "internalType": "uint256",
          "name": "ticketsSold",
          "type": "uint256"
        },
        {
          "internalType": "bool",
          "name": "finalized",
          "type": "bool"
        }
      ],
      "stateMutability": "view",
      "type": "function"
    },
    {
      "inputs": [],
      "name": "selectWinner",
      "outputs": [],
      "stateMutability": "nonpayable",
      "type": "function"
    },
    {
      "inputs": [
        {
          "internalType": "address",
          "name": "_newFeeWallet",
          "type": "address"
        }
      ],
      "name": "setFeeWallet",
      "outputs": [],
      "stateMutability": "nonpayable",
      "type": "function"
    },
    {
      "inputs": [
        {
          "internalType": "address",
          "name": "_newVaultWallet",
          "type": "address"
        }
      ],
      "name": "setVaultWallet",
      "outputs": [],
      "stateMutability": "nonpayable",
      "type": "function"
    },
    {
      "inputs": [],
      "name": "startNewDraw",
      "outputs": [],
      "stateMutability": "nonpayable",
      "type": "function"
    },
    {
      "inputs": [
        {
          "internalType": "uint256",
          "name": "",
          "type": "uint256"
        },
        {
          "internalType": "address",
          "name": "",
          "type": "address"
        }
      ],
      "name": "ticketCount",
      "outputs": [
        {
          "internalType": "uint256",
          "name": "",
          "type": "uint256"
        }
      ],
      "stateMutability": "view",
      "type": "function"
    },
    {
      "inputs": [],
      "name": "ticketFee",
      "outputs": [
        {
          "internalType": "uint256",
          "name": "",
          "type": "uint256"
        }
      ],
      "stateMutability": "view",
      "type": "function"
    },
    {
      "inputs": [],
      "name": "ticketPrice",
      "outputs": [
        {
          "internalType": "uint256",
          "name": "",
          "type": "uint256"
        }
      ],
      "stateMutability": "view",
      "type": "function"
    },
    {
      "inputs": [
        {
          "internalType": "uint256",
          "name": "_newPrice",
          "type": "uint256"
        }
      ],
      "name": "updateTicketPrice",
      "outputs": [],
      "stateMutability": "nonpayable",
      "type": "function"
    },
    {
      "inputs": [],
      "name": "vaultWallet",
      "outputs": [
        {
          "internalType": "contract IVaultWallet",
          "name": "",
          "type": "address"
        }
      ],
      "stateMutability": "view",
      "type": "function"
    },
    {
      "inputs": [],
      "name": "viewTickets",
      "outputs": [
        {
          "internalType": "address",
          "name": "playerAddress",
          "type": "address"
        },
        {
          "internalType": "uint256",
          "name": "playerTickets",
          "type": "uint256"
        }
      ],
      "stateMutability": "view",
      "type": "function"
    }
  ],
  "bytecode": "0x60806040526040516200333e3803806200333e8339818101604052810190620000299190620002ed565b600073ffffffffffffffffffffffffffffffffffffffff168273ffffffffffffffffffffffffffffffffffffffff16036200009b576040517f08c379a00000000000000000000000000000000000000000000000000000000081526004016200009290620003aa565b60405180910390fd5b600073ffffffffffffffffffffffffffffffffffffffff168173ffffffffffffffffffffffffffffffffffffffff16036200010d576040517f08c379a000000000000000000000000000000000000000000000000000000000815260040162000104906200041c565b60405180910390fd5b6000831162000153576040517f08c379a00000000000000000000000000000000000000000000000000000000081526004016200014a90620004b4565b60405180910390fd5b336000806101000a81548173ffffffffffffffffffffffffffffffffffffffff021916908373ffffffffffffffffffffffffffffffffffffffff16021790555081600160006101000a81548173ffffffffffffffffffffffffffffffffffffffff021916908373ffffffffffffffffffffffffffffffffffffffff16021790555080600460006101000a81548173ffffffffffffffffffffffffffffffffffffffff021916908373ffffffffffffffffffffffffffffffffffffffff1602179055508260028190555060646005846200022d919062000505565b6200023991906200057f565b600381905550505050620005b7565b600080fd5b6000819050919050565b62000262816200024d565b81146200026e57600080fd5b50565b600081519050620002828162000257565b92915050565b600073ffffffffffffffffffffffffffffffffffffffff82169050919050565b6000620002b58262000288565b9050919050565b620002c781620002a8565b8114620002d357600080fd5b50565b600081519050620002e781620002bc565b92915050565b60008060006060848603121562000309576200030862000248565b5b6000620003198682870162000271565b93505060206200032c86828701620002d6565b92505060406200033f86828701620002d6565b9150509250925092565b600082825260208201905092915050565b7f496e76616c6964206665652077616c6c65742061646472657373000000000000600082015250565b600062000392601a8362000349565b91506200039f826200035a565b602082019050919050565b60006020820190508181036000830152620003c58162000383565b9050919050565b7f496e76616c6964207661756c742077616c6c6574206164647265737300000000600082015250565b600062000404601c8362000349565b91506200041182620003cc565b602082019050919050565b600060208201905081810360008301526200043781620003f5565b9050919050565b7f5469636b6574207072696365206d75737420626520677265617465722074686160008201527f6e20300000000000000000000000000000000000000000000000000000000000602082015250565b60006200049c60238362000349565b9150620004a9826200043e565b604082019050919050565b60006020820190508181036000830152620004cf816200048d565b9050919050565b7f4e487b7100000000000000000000000000000000000000000000000000000000600052601160045260246000fd5b600062000512826200024d565b91506200051f836200024d565b92508282026200052f816200024d565b91508282048414831517620005495762000548620004d6565b5b5092915050565b7f4e487b7100000000000000000000000000000000000000000000000000000000600052601260045260246000fd5b60006200058c826200024d565b915062000599836200024d565b925082620005ac57620005ab62000550565b5b828204905092915050565b612d7780620005c76000396000f3fe6080604052600436106101095760003560e01c806390d49b9d11610095578063c0d77a8811610064578063c0d77a8814610325578063c41d945e1461034e578063de26eadf1461038b578063f02137c8146103c8578063f25f4b56146103f157610109565b806390d49b9d1461027a5780639cbe5efd146102a3578063a0994c47146102ce578063ac483b93146102f957610109565b80635e83c67e116100dc5780635e83c67e1461018357806361f1c5ba146101b557806370b90e7d146101e05780638c65c81f1461020c5780638da5cb5b1461024f57610109565b80631209b1f61461010e5780632f3666371461013957806333a99e041461015557806346fda30f1461016c575b600080fd5b34801561011a57600080fd5b5061012361041c565b6040516101309190611d3a565b60405180910390f35b610153600480360381019061014e9190611d86565b610422565b005b34801561016157600080fd5b5061016a610a2c565b005b34801561017857600080fd5b50610181610f98565b005b34801561018f57600080fd5b506101986111c3565b6040516101ac989796959493929190611e0f565b60405180910390f35b3480156101c157600080fd5b506101ca611302565b6040516101d79190611eec565b60405180910390f35b3480156101ec57600080fd5b506101f5611328565b604051610203929190611f07565b60405180910390f35b34801561021857600080fd5b50610233600480360381019061022e9190611d86565b611387565b6040516102469796959493929190611f30565b60405180910390f35b34801561025b57600080fd5b506102646113f6565b6040516102719190611f9f565b60405180910390f35b34801561028657600080fd5b506102a1600480360381019061029c9190611fe6565b61141a565b005b3480156102af57600080fd5b506102b86115dd565b6040516102c59190611d3a565b60405180910390f35b3480156102da57600080fd5b506102e36115e3565b6040516102f09190611d3a565b60405180910390f35b34801561030557600080fd5b5061030e6115e9565b60405161031c9291906120a3565b60405180910390f35b34801561033157600080fd5b5061034c60048036038101906103479190611fe6565b611786565b005b34801561035a57600080fd5b50610375600480360381019061037091906120d3565b611949565b6040516103829190611d3a565b60405180910390f35b34801561039757600080fd5b506103b260048036038101906103ad9190612113565b61196e565b6040516103bf9190611f9f565b60405180910390f35b3480156103d457600080fd5b506103ef60048036038101906103ea9190611d86565b6119bc565b005b3480156103fd57600080fd5b50610406611ada565b6040516104139190611f9f565b60405180910390f35b60025481565b600660009054906101000a900460ff1615610472576040517f08c379a00000000000000000000000000000000000000000000000000000000081526004016104699061219f565b60405180910390fd5b6001600660006101000a81548160ff0219169083151502179055506000600760006005548152602001908152602001600020905080600001544210156104ed576040517f08c379a00000000000000000000000000000000000000000000000000000000081526004016104e49061220b565b60405180910390fd5b8060010154421115610534576040517f08c379a000000000000000000000000000000000000000000000000000000000815260040161052b90612277565b60405180910390fd5b60008211610577576040517f08c379a000000000000000000000000000000000000000000000000000000000815260040161056e906122e3565b60405180910390fd5b6000826002546105879190612332565b9050803410156105cc576040517f08c379a00000000000000000000000000000000000000000000000000000000081526004016105c3906123c0565b60405180910390fd5b600060646005836105dd9190612332565b6105e7919061240f565b9050600081836105f79190612440565b90506000600160009054906101000a900473ffffffffffffffffffffffffffffffffffffffff1673ffffffffffffffffffffffffffffffffffffffff1683604051610641906124a5565b60006040518083038185875af1925050503d806000811461067e576040519150601f19603f3d011682016040523d82523d6000602084013e610683565b606091505b50509050806106c7576040517f08c379a00000000000000000000000000000000000000000000000000000000081526004016106be90612506565b60405180910390fd5b6000600460009054906101000a900473ffffffffffffffffffffffffffffffffffffffff1673ffffffffffffffffffffffffffffffffffffffff168360405161070f906124a5565b60006040518083038185875af1925050503d806000811461074c576040519150601f19603f3d011682016040523d82523d6000602084013e610751565b606091505b5050905080610795576040517f08c379a000000000000000000000000000000000000000000000000000000000815260040161078c90612572565b60405180910390fd5b600085346107a39190612440565b9050600081111561085c5760003373ffffffffffffffffffffffffffffffffffffffff16826040516107d4906124a5565b60006040518083038185875af1925050503d8060008114610811576040519150601f19603f3d011682016040523d82523d6000602084013e610816565b606091505b505090508061085a576040517f08c379a0000000000000000000000000000000000000000000000000000000008152600401610851906125de565b60405180910390fd5b505b600060096000600554815260200190815260200160002060003373ffffffffffffffffffffffffffffffffffffffff1673ffffffffffffffffffffffffffffffffffffffff168152602001908152602001600020540361092d57600860006005548152602001908152602001600020339080600181540180825580915050600190039060005260206000200160009091909190916101000a81548173ffffffffffffffffffffffffffffffffffffffff021916908373ffffffffffffffffffffffffffffffffffffffff1602179055505b8760096000600554815260200190815260200160002060003373ffffffffffffffffffffffffffffffffffffffff1673ffffffffffffffffffffffffffffffffffffffff168152602001908152602001600020600082825461098f91906125fe565b92505081905550878760050160008282546109aa91906125fe565b925050819055503373ffffffffffffffffffffffffffffffffffffffff167f6b8e3a0ce967466a23c3a85c3bccbf7d17dcd52ef3650227e575ce2b571aee876005548a88886040516109ff9493929190612632565b60405180910390a2505050505050506000600660006101000a81548160ff02191690831515021790555050565b60008054906101000a900473ffffffffffffffffffffffffffffffffffffffff1673ffffffffffffffffffffffffffffffffffffffff163373ffffffffffffffffffffffffffffffffffffffff1614610aba576040517f08c379a0000000000000000000000000000000000000000000000000000000008152600401610ab1906126c3565b60405180910390fd5b600660009054906101000a900460ff1615610b0a576040517f08c379a0000000000000000000000000000000000000000000000000000000008152600401610b019061219f565b60405180910390fd5b6001600660006101000a81548160ff021916908315150217905550600060076000600554815260200190815260200160002090508060060160009054906101000a900460ff1615610b90576040517f08c379a0000000000000000000000000000000000000000000000000000000008152600401610b879061272f565b60405180910390fd5b6000816005015411610bd7576040517f08c379a0000000000000000000000000000000000000000000000000000000008152600401610bce9061279b565b60405180910390fd5b600081600501544244600143610bed9190612440565b40604051602001610c0093929190612807565b6040516020818303038152906040528051906020012060001c610c239190612844565b905060008060005b60086000600554815260200190815260200160002080549050811015610d705760096000600554815260200190815260200160002060006008600060055481526020019081526020016000208381548110610c8957610c88612875565b5b9060005260206000200160009054906101000a900473ffffffffffffffffffffffffffffffffffffffff1673ffffffffffffffffffffffffffffffffffffffff1673ffffffffffffffffffffffffffffffffffffffff1681526020019081526020016000205482610cfa91906125fe565b915083821115610d5d576008600060055481526020019081526020016000208181548110610d2b57610d2a612875565b5b9060005260206000200160009054906101000a900473ffffffffffffffffffffffffffffffffffffffff169250610d70565b8080610d68906128a4565b915050610c2b565b50818460030160006101000a81548173ffffffffffffffffffffffffffffffffffffffff021916908373ffffffffffffffffffffffffffffffffffffffff16021790555060018460060160006101000a81548160ff0219169083151502179055506000600460009054906101000a900473ffffffffffffffffffffffffffffffffffffffff1673ffffffffffffffffffffffffffffffffffffffff166312065fe06040518163ffffffff1660e01b8152600401602060405180830381865afa158015610e40573d6000803e3d6000fd5b505050506040513d601f19601f82011682018060405250810190610e649190612901565b9050808560040181905550600160056000828254610e8291906125fe565b92505081905550600460009054906101000a900473ffffffffffffffffffffffffffffffffffffffff1673ffffffffffffffffffffffffffffffffffffffff1663f3fef3a384836040518363ffffffff1660e01b8152600401610ee6929190611f07565b600060405180830381600087803b158015610f0057600080fd5b505af1158015610f14573d6000803e3d6000fd5b505050508273ffffffffffffffffffffffffffffffffffffffff167fdc1d0b6a7cbfa6f3b2d4325bab5a169b265ad0b2b4022fb550364f0dfeeb6a746001600554610f5f9190612440565b83604051610f6e92919061292e565b60405180910390a250505050506000600660006101000a81548160ff021916908315150217905550565b60008054906101000a900473ffffffffffffffffffffffffffffffffffffffff1673ffffffffffffffffffffffffffffffffffffffff163373ffffffffffffffffffffffffffffffffffffffff1614611026576040517f08c379a000000000000000000000000000000000000000000000000000000000815260040161101d906126c3565b60405180910390fd5b600060055411156110a3576007600060016005546110449190612440565b815260200190815260200160002060060160009054906101000a900460ff166110a2576040517f08c379a0000000000000000000000000000000000000000000000000000000008152600401611099906129a3565b60405180910390fd5b5b600060076000600554815260200190815260200160002090506000816000015414611103576040517f08c379a00000000000000000000000000000000000000000000000000000000081526004016110fa90612a0f565b60405180910390fd5b6000429050600062093a808261111991906125fe565b90506000610e108261112b91906125fe565b905082846000018190555081846001018190555080846002018190555060008460030160006101000a81548173ffffffffffffffffffffffffffffffffffffffff021916908373ffffffffffffffffffffffffffffffffffffffff160217905550600084600401819055506000846005018190555060008460060160006101000a81548160ff02191690831515021790555050505050565b6000806000806000806000806000600760006005548152602001908152602001600020905060008160010154421015611209574282600101546112069190612440565b90505b600460009054906101000a900473ffffffffffffffffffffffffffffffffffffffff1673ffffffffffffffffffffffffffffffffffffffff166312065fe06040518163ffffffff1660e01b8152600401602060405180830381865afa158015611276573d6000803e3d6000fd5b505050506040513d601f19601f8201168201806040525081019061129a9190612901565b8260050154836000015484600101548560020154858760060160009054906101000a900460ff168860030160009054906101000a900473ffffffffffffffffffffffffffffffffffffffff169950995099509950995099509950995050509091929394959697565b600460009054906101000a900473ffffffffffffffffffffffffffffffffffffffff1681565b60008060096000600554815260200190815260200160002060003373ffffffffffffffffffffffffffffffffffffffff1673ffffffffffffffffffffffffffffffffffffffff1681526020019081526020016000205490503391509091565b60076020528060005260406000206000915090508060000154908060010154908060020154908060030160009054906101000a900473ffffffffffffffffffffffffffffffffffffffff16908060040154908060050154908060060160009054906101000a900460ff16905087565b60008054906101000a900473ffffffffffffffffffffffffffffffffffffffff1681565b60008054906101000a900473ffffffffffffffffffffffffffffffffffffffff1673ffffffffffffffffffffffffffffffffffffffff163373ffffffffffffffffffffffffffffffffffffffff16146114a8576040517f08c379a000000000000000000000000000000000000000000000000000000000815260040161149f906126c3565b60405180910390fd5b600073ffffffffffffffffffffffffffffffffffffffff168173ffffffffffffffffffffffffffffffffffffffff1603611517576040517f08c379a000000000000000000000000000000000000000000000000000000000815260040161150e90612a7b565b60405180910390fd5b6000600160009054906101000a900473ffffffffffffffffffffffffffffffffffffffff16905081600160006101000a81548173ffffffffffffffffffffffffffffffffffffffff021916908373ffffffffffffffffffffffffffffffffffffffff1602179055508173ffffffffffffffffffffffffffffffffffffffff168173ffffffffffffffffffffffffffffffffffffffff167f362a006325d32978b283e449d254cfcf93e2cccc321603ead9a74238d8dbf36e60405160405180910390a35050565b60055481565b60035481565b600060606000600760006005548152602001908152602001600020905060008160000154036116545760006040518060400160405280601c81526020017f4e6f206472617720686173206265656e207374617274656420796574000000008152509250925050611782565b8060060160009054906101000a900460ff16156116ad5760006040518060400160405280601f81526020017f43757272656e74206472617720686173206265656e20636f6d706c65746564008152509250925050611782565b600042905081600001548110156116f75760006116cd8360000154611b00565b6040516020016116dd9190612afd565b604051602081830303815290604052935093505050611782565b816001015481111561173c5760006117128360010154611b00565b6040516020016117229190612b49565b604051602081830303815290604052935093505050611782565b600081836001015461174e9190612440565b9050600161175b82611b00565b60405160200161176b9190612be1565b604051602081830303815290604052945094505050505b9091565b60008054906101000a900473ffffffffffffffffffffffffffffffffffffffff1673ffffffffffffffffffffffffffffffffffffffff163373ffffffffffffffffffffffffffffffffffffffff1614611814576040517f08c379a000000000000000000000000000000000000000000000000000000000815260040161180b906126c3565b60405180910390fd5b600073ffffffffffffffffffffffffffffffffffffffff168173ffffffffffffffffffffffffffffffffffffffff1603611883576040517f08c379a000000000000000000000000000000000000000000000000000000000815260040161187a90612c4f565b60405180910390fd5b6000600460009054906101000a900473ffffffffffffffffffffffffffffffffffffffff16905081600460006101000a81548173ffffffffffffffffffffffffffffffffffffffff021916908373ffffffffffffffffffffffffffffffffffffffff1602179055508173ffffffffffffffffffffffffffffffffffffffff168173ffffffffffffffffffffffffffffffffffffffff167f699d1ec8955f62d1fd3da9ea35ea14b0aa71595239bbb9a18e7e60e301495f3560405160405180910390a35050565b6009602052816000526040600020602052806000526040600020600091509150505481565b6008602052816000526040600020818154811061198a57600080fd5b906000526020600020016000915091509054906101000a900473ffffffffffffffffffffffffffffffffffffffff1681565b60008054906101000a900473ffffffffffffffffffffffffffffffffffffffff1673ffffffffffffffffffffffffffffffffffffffff163373ffffffffffffffffffffffffffffffffffffffff1614611a4a576040517f08c379a0000000000000000000000000000000000000000000000000000000008152600401611a41906126c3565b60405180910390fd5b60008111611a8d576040517f08c379a0000000000000000000000000000000000000000000000000000000008152600401611a8490612cbb565b60405180910390fd5b60006002549050816002819055507f64dda92e7d0c84adf768959c948b790f410cadfa99e1ac8abbd996b7df7323a4818342604051611ace93929190612cdb565b60405180910390a15050565b600160009054906101000a900473ffffffffffffffffffffffffffffffffffffffff1681565b606060006001611b0f84611bce565b01905060008167ffffffffffffffff811115611b2e57611b2d612d12565b5b6040519080825280601f01601f191660200182016040528015611b605781602001600182028036833780820191505090505b509050600082602001820190505b600115611bc3578080600190039150507f3031323334353637383961626364656600000000000000000000000000000000600a86061a8153600a8581611bb757611bb66123e0565b5b04945060008503611b6e575b819350505050919050565b600080600090507a184f03e93ff9f4daa797ed6e38ed64bf6a1f0100000000000000008310611c2c577a184f03e93ff9f4daa797ed6e38ed64bf6a1f0100000000000000008381611c2257611c216123e0565b5b0492506040810190505b6d04ee2d6d415b85acef81000000008310611c69576d04ee2d6d415b85acef81000000008381611c5f57611c5e6123e0565b5b0492506020810190505b662386f26fc100008310611c9857662386f26fc100008381611c8e57611c8d6123e0565b5b0492506010810190505b6305f5e1008310611cc1576305f5e1008381611cb757611cb66123e0565b5b0492506008810190505b6127108310611ce6576127108381611cdc57611cdb6123e0565b5b0492506004810190505b60648310611d095760648381611cff57611cfe6123e0565b5b0492506002810190505b600a8310611d18576001810190505b80915050919050565b6000819050919050565b611d3481611d21565b82525050565b6000602082019050611d4f6000830184611d2b565b92915050565b600080fd5b611d6381611d21565b8114611d6e57600080fd5b50565b600081359050611d8081611d5a565b92915050565b600060208284031215611d9c57611d9b611d55565b5b6000611daa84828501611d71565b91505092915050565b60008115159050919050565b611dc881611db3565b82525050565b600073ffffffffffffffffffffffffffffffffffffffff82169050919050565b6000611df982611dce565b9050919050565b611e0981611dee565b82525050565b600061010082019050611e25600083018b611d2b565b611e32602083018a611d2b565b611e3f6040830189611d2b565b611e4c6060830188611d2b565b611e596080830187611d2b565b611e6660a0830186611d2b565b611e7360c0830185611dbf565b611e8060e0830184611e00565b9998505050505050505050565b6000819050919050565b6000611eb2611ead611ea884611dce565b611e8d565b611dce565b9050919050565b6000611ec482611e97565b9050919050565b6000611ed682611eb9565b9050919050565b611ee681611ecb565b82525050565b6000602082019050611f016000830184611edd565b92915050565b6000604082019050611f1c6000830185611e00565b611f296020830184611d2b565b9392505050565b600060e082019050611f45600083018a611d2b565b611f526020830189611d2b565b611f5f6040830188611d2b565b611f6c6060830187611e00565b611f796080830186611d2b565b611f8660a0830185611d2b565b611f9360c0830184611dbf565b98975050505050505050565b6000602082019050611fb46000830184611e00565b92915050565b611fc381611dee565b8114611fce57600080fd5b50565b600081359050611fe081611fba565b92915050565b600060208284031215611ffc57611ffb611d55565b5b600061200a84828501611fd1565b91505092915050565b600081519050919050565b600082825260208201905092915050565b60005b8381101561204d578082015181840152602081019050612032565b60008484015250505050565b6000601f19601f8301169050919050565b600061207582612013565b61207f818561201e565b935061208f81856020860161202f565b61209881612059565b840191505092915050565b60006040820190506120b86000830185611dbf565b81810360208301526120ca818461206a565b90509392505050565b600080604083850312156120ea576120e9611d55565b5b60006120f885828601611d71565b925050602061210985828601611fd1565b9150509250929050565b6000806040838503121561212a57612129611d55565b5b600061213885828601611d71565b925050602061214985828601611d71565b9150509250929050565b7f5265656e7472616e742063616c6c000000000000000000000000000000000000600082015250565b6000612189600e8361201e565b915061219482612153565b602082019050919050565b600060208201905081810360008301526121b88161217c565b9050919050565b7f4c6f7474657279206861736e2774207374617274656400000000000000000000600082015250565b60006121f560168361201e565b9150612200826121bf565b602082019050919050565b60006020820190508181036000830152612224816121e8565b9050919050565b7f4c6f74746572792068617320656e646564000000000000000000000000000000600082015250565b600061226160118361201e565b915061226c8261222b565b602082019050919050565b6000602082019050818103600083015261229081612254565b9050919050565b7f4d75737420627579206174206c65617374206f6e65207469636b657400000000600082015250565b60006122cd601c8361201e565b91506122d882612297565b602082019050919050565b600060208201905081810360008301526122fc816122c0565b9050919050565b7f4e487b7100000000000000000000000000000000000000000000000000000000600052601160045260246000fd5b600061233d82611d21565b915061234883611d21565b925082820261235681611d21565b9150828204841483151761236d5761236c612303565b5b5092915050565b7f496e73756666696369656e74207061796d656e74000000000000000000000000600082015250565b60006123aa60148361201e565b91506123b582612374565b602082019050919050565b600060208201905081810360008301526123d98161239d565b9050919050565b7f4e487b7100000000000000000000000000000000000000000000000000000000600052601260045260246000fd5b600061241a82611d21565b915061242583611d21565b925082612435576124346123e0565b5b828204905092915050565b600061244b82611d21565b915061245683611d21565b925082820390508181111561246e5761246d612303565b5b92915050565b600081905092915050565b50565b600061248f600083612474565b915061249a8261247f565b600082019050919050565b60006124b082612482565b9150819050919050565b7f4661696c656420746f2073656e642066656520746f206665652077616c6c6574600082015250565b60006124f060208361201e565b91506124fb826124ba565b602082019050919050565b6000602082019050818103600083015261251f816124e3565b9050919050565b7f4661696c656420746f2073656e6420746f207661756c74000000000000000000600082015250565b600061255c60178361201e565b915061256782612526565b602082019050919050565b6000602082019050818103600083015261258b8161254f565b9050919050565b7f4661696c656420746f20726566756e6420657863657373000000000000000000600082015250565b60006125c860178361201e565b91506125d382612592565b602082019050919050565b600060208201905081810360008301526125f7816125bb565b9050919050565b600061260982611d21565b915061261483611d21565b925082820190508082111561262c5761262b612303565b5b92915050565b60006080820190506126476000830187611d2b565b6126546020830186611d2b565b6126616040830185611d2b565b61266e6060830184611d2b565b95945050505050565b7f4e6f7420746865206f776e657200000000000000000000000000000000000000600082015250565b60006126ad600d8361201e565b91506126b882612677565b602082019050919050565b600060208201905081810360008301526126dc816126a0565b9050919050565b7f526f756e6420616c72656164792066696e616c697a6564000000000000000000600082015250565b600061271960178361201e565b9150612724826126e3565b602082019050919050565b600060208201905081810360008301526127488161270c565b9050919050565b7f4e6f207469636b65747320736f6c640000000000000000000000000000000000600082015250565b6000612785600f8361201e565b91506127908261274f565b602082019050919050565b600060208201905081810360008301526127b481612778565b9050919050565b6000819050919050565b6127d66127d182611d21565b6127bb565b82525050565b6000819050919050565b6000819050919050565b6128016127fc826127dc565b6127e6565b82525050565b600061281382866127c5565b60208201915061282382856127c5565b60208201915061283382846127f0565b602082019150819050949350505050565b600061284f82611d21565b915061285a83611d21565b92508261286a576128696123e0565b5b828206905092915050565b7f4e487b7100000000000000000000000000000000000000000000000000000000600052603260045260246000fd5b60006128af82611d21565b91507fffffffffffffffffffffffffffffffffffffffffffffffffffffffffffffffff82036128e1576128e0612303565b5b600182019050919050565b6000815190506128fb81611d5a565b92915050565b60006020828403121561291757612916611d55565b5b6000612925848285016128ec565b91505092915050565b60006040820190506129436000830185611d2b565b6129506020830184611d2b565b9392505050565b7f50726576696f757320726f756e64206e6f742066696e616c697a656400000000600082015250565b600061298d601c8361201e565b915061299882612957565b602082019050919050565b600060208201905081810360008301526129bc81612980565b9050919050565b7f526f756e6420616c726561647920737461727465640000000000000000000000600082015250565b60006129f960158361201e565b9150612a04826129c3565b602082019050919050565b60006020820190508181036000830152612a28816129ec565b9050919050565b7f496e76616c6964206665652077616c6c65742061646472657373000000000000600082015250565b6000612a65601a8361201e565b9150612a7082612a2f565b602082019050919050565b60006020820190508181036000830152612a9481612a58565b9050919050565b7f447261772077696c6c2073746172742061742074696d657374616d703a200000815250565b600081905092915050565b6000612ad782612013565b612ae18185612ac1565b9350612af181856020860161202f565b80840191505092915050565b6000612b0882612a9b565b601e82019150612b188284612acc565b915081905092915050565b7f4472617720656e6465642061742074696d657374616d703a2000000000000000815250565b6000612b5482612b23565b601982019150612b648284612acc565b915081905092915050565b7f44726177206973206f70656e2e2054696d652072656d61696e696e672028696e60008201527f207365636f6e6473293a20000000000000000000000000000000000000000000602082015250565b6000612bcb602b83612ac1565b9150612bd682612b6f565b602b82019050919050565b6000612bec82612bbe565b9150612bf88284612acc565b915081905092915050565b7f496e76616c6964207661756c7420616464726573730000000000000000000000600082015250565b6000612c3960158361201e565b9150612c4482612c03565b602082019050919050565b60006020820190508181036000830152612c6881612c2c565b9050919050565b7f5072696365206d7573742062652067726561746572207468616e203000000000600082015250565b6000612ca5601c8361201e565b9150612cb082612c6f565b602082019050919050565b60006020820190508181036000830152612cd481612c98565b9050919050565b6000606082019050612cf06000830186611d2b565b612cfd6020830185611d2b565b612d0a6040830184611d2b565b949350505050565b7f4e487b7100000000000000000000000000000000000000000000000000000000600052604160045260246000fdfea264697066735822122049e2889dc5b2eadfb91632c6db679c6d6493864737614a6ccf8836ea0a4bd73064736f6c63430008140033",
  "linkReferences": {},
  "deployedLinkReferences": {}
}