{
  "_format": "hh-sol-artifact-1",
  "contractName": "VaultWallet",
  "sourceName": "contracts/Vault.sol",
  "abi": [
    {
      "inputs": [
        {
          "internalType": "address",
          "name": "_lotteryContract",
          "type": "address"
        }
      ],
      "stateMutability": "payable",
      "type": "constructor"
    },
    {
      "anonymous": false,
      "inputs": [
        {
          "indexed": true,
          "internalType": "address",
          "name": "to",
          "type": "address"
        },
        {
          "indexed": false,
          "internalType": "uint256",
          "name": "amount",
          "type": "uint256"
        }
      ],
      "name": "Withdrawal",
      "type": "event"
    },
    {
      "stateMutability": "payable",
      "type": "fallback"
    },
    {
      "inputs": [],
      "name": "getBalance",
      "outputs": [
        {
          "internalType": "uint256",
          "name": "",
          "type": "uint256"
        }
      ],
      "stateMutability": "view",
      "type": "function"
    },
    {
      "inputs": [],
      "name": "lotteryContract",
      "outputs": [
        {
          "internalType": "address",
          "name": "",
          "type": "address"
        }
      ],
      "stateMutability": "view",
      "type": "function"
    },
    {
      "inputs": [
        {
          "internalType": "address",
          "name": "to",
          "type": "address"
        },
        {
          "internalType": "uint256",
          "name": "amount",
          "type": "uint256"
        }
      ],
      "name": "withdraw",
      "outputs": [],
      "stateMutability": "nonpayable",
      "type": "function"
    },
    {
      "stateMutability": "payable",
      "type": "receive"
    }
  ],
  "bytecode": "0x60a060405260405161093f38038061093f83398181016040528101906100259190610131565b600073ffffffffffffffffffffffffffffffffffffffff168173ffffffffffffffffffffffffffffffffffffffff1603610094576040517f08c379a000000000000000000000000000000000000000000000000000000000815260040161008b906101bb565b60405180910390fd5b8073ffffffffffffffffffffffffffffffffffffffff1660808173ffffffffffffffffffffffffffffffffffffffff1681525050506101db565b600080fd5b600073ffffffffffffffffffffffffffffffffffffffff82169050919050565b60006100fe826100d3565b9050919050565b61010e816100f3565b811461011957600080fd5b50565b60008151905061012b81610105565b92915050565b600060208284031215610147576101466100ce565b5b60006101558482850161011c565b91505092915050565b600082825260208201905092915050565b7f496e76616c6964206c6f74746572792061646472657373000000000000000000600082015250565b60006101a560178361015e565b91506101b08261016f565b602082019050919050565b600060208201905081810360008301526101d481610198565b9050919050565b6080516107446101fb6000396000818160ca015260ee01526107446000f3fe6080604052600436106100385760003560e01c806312065fe014610041578063b29c662a1461006c578063f3fef3a3146100975761003f565b3661003f57005b005b34801561004d57600080fd5b506100566100c0565b6040516100639190610387565b60405180910390f35b34801561007857600080fd5b506100816100c8565b60405161008e91906103e3565b60405180910390f35b3480156100a357600080fd5b506100be60048036038101906100b9919061045b565b6100ec565b005b600047905090565b7f000000000000000000000000000000000000000000000000000000000000000081565b7f000000000000000000000000000000000000000000000000000000000000000073ffffffffffffffffffffffffffffffffffffffff163373ffffffffffffffffffffffffffffffffffffffff161461017a576040517f08c379a0000000000000000000000000000000000000000000000000000000008152600401610171906104f8565b60405180910390fd5b600073ffffffffffffffffffffffffffffffffffffffff168273ffffffffffffffffffffffffffffffffffffffff16036101e9576040517f08c379a00000000000000000000000000000000000000000000000000000000081526004016101e090610564565b60405180910390fd5b6000811161022c576040517f08c379a0000000000000000000000000000000000000000000000000000000008152600401610223906105d0565b60405180910390fd5b4781111561026f576040517f08c379a00000000000000000000000000000000000000000000000000000000081526004016102669061063c565b60405180910390fd5b60008273ffffffffffffffffffffffffffffffffffffffff16826040516102959061068d565b60006040518083038185875af1925050503d80600081146102d2576040519150601f19603f3d011682016040523d82523d6000602084013e6102d7565b606091505b505090508061031b576040517f08c379a0000000000000000000000000000000000000000000000000000000008152600401610312906106ee565b60405180910390fd5b8273ffffffffffffffffffffffffffffffffffffffff167f7fcf532c15f0a6db0bd6d0e038bea71d30d808c7d98cb3bf7268a95bf5081b65836040516103619190610387565b60405180910390a2505050565b6000819050919050565b6103818161036e565b82525050565b600060208201905061039c6000830184610378565b92915050565b600073ffffffffffffffffffffffffffffffffffffffff82169050919050565b60006103cd826103a2565b9050919050565b6103dd816103c2565b82525050565b60006020820190506103f860008301846103d4565b92915050565b600080fd5b61040c816103c2565b811461041757600080fd5b50565b60008135905061042981610403565b92915050565b6104388161036e565b811461044357600080fd5b50565b6000813590506104558161042f565b92915050565b60008060408385031215610472576104716103fe565b5b60006104808582860161041a565b925050602061049185828601610446565b9150509250929050565b600082825260208201905092915050565b7f4f6e6c79206c6f74746572792063616e20776974686472617700000000000000600082015250565b60006104e260198361049b565b91506104ed826104ac565b602082019050919050565b60006020820190508181036000830152610511816104d5565b9050919050565b7f496e76616c696420726563697069656e74000000000000000000000000000000600082015250565b600061054e60118361049b565b915061055982610518565b602082019050919050565b6000602082019050818103600083015261057d81610541565b9050919050565b7f416d6f756e74206d7573742062652067726561746572207468616e2030000000600082015250565b60006105ba601d8361049b565b91506105c582610584565b602082019050919050565b600060208201905081810360008301526105e9816105ad565b9050919050565b7f496e73756666696369656e742062616c616e6365000000000000000000000000600082015250565b600061062660148361049b565b9150610631826105f0565b602082019050919050565b6000602082019050818103600083015261065581610619565b9050919050565b600081905092915050565b50565b600061067760008361065c565b915061068282610667565b600082019050919050565b60006106988261066a565b9150819050919050565b7f5472616e73666572206661696c65640000000000000000000000000000000000600082015250565b60006106d8600f8361049b565b91506106e3826106a2565b602082019050919050565b60006020820190508181036000830152610707816106cb565b905091905056fea26469706673582212202df9a50050a05c0dcadf4ffabd63ac0932dba7af32d65b4645f1c9a4a319740a64736f6c63430008140033",
  "linkReferences": {},
  "deployedLinkReferences": {}
}