{
  "_format": "hh-sol-artifact-1",
  "contractName": "VaultWallet",
  "sourceName": "contracts/Vault.sol",
  "abi": [
    {
      "inputs": [],
      "stateMutability": "payable",
      "type": "constructor"
    },
    {
      "anonymous": false,
      "inputs": [
        {
          "indexed": true,
          "internalType": "address",
          "name": "lotteryContract",
          "type": "address"
        }
      ],
      "name": "Initialized",
      "type": "event"
    },
    {
      "anonymous": false,
      "inputs": [
        {
          "indexed": true,
          "internalType": "address",
          "name": "to",
          "type": "address"
        },
        {
          "indexed": false,
          "internalType": "uint256",
          "name": "amount",
          "type": "uint256"
        }
      ],
      "name": "Withdrawal",
      "type": "event"
    },
    {
      "stateMutability": "payable",
      "type": "fallback"
    },
    {
      "inputs": [],
      "name": "getBalance",
      "outputs": [
        {
          "internalType": "uint256",
          "name": "",
          "type": "uint256"
        }
      ],
      "stateMutability": "view",
      "type": "function"
    },
    {
      "inputs": [
        {
          "internalType": "address",
          "name": "_lotteryContract",
          "type": "address"
        }
      ],
      "name": "initialize",
      "outputs": [],
      "stateMutability": "nonpayable",
      "type": "function"
    },
    {
      "inputs": [],
      "name": "initialized",
      "outputs": [
        {
          "internalType": "bool",
          "name": "",
          "type": "bool"
        }
      ],
      "stateMutability": "view",
      "type": "function"
    },
    {
      "inputs": [],
      "name": "lotteryContract",
      "outputs": [
        {
          "internalType": "address",
          "name": "",
          "type": "address"
        }
      ],
      "stateMutability": "view",
      "type": "function"
    },
    {
      "inputs": [],
      "name": "owner",
      "outputs": [
        {
          "internalType": "address",
          "name": "",
          "type": "address"
        }
      ],
      "stateMutability": "view",
      "type": "function"
    },
    {
      "inputs": [
        {
          "internalType": "address",
          "name": "winner",
          "type": "address"
        },
        {
          "internalType": "uint256",
          "name": "amount",
          "type": "uint256"
        }
      ],
      "name": "withdraw",
      "outputs": [],
      "stateMutability": "nonpayable",
      "type": "function"
    },
    {
      "stateMutability": "payable",
      "type": "receive"
    }
  ],
  "bytecode": "0x608060405233600160006101000a81548173ffffffffffffffffffffffffffffffffffffffff021916908373ffffffffffffffffffffffffffffffffffffffff160217905550610b0c806100546000396000f3fe6080604052600436106100595760003560e01c806312065fe014610062578063158ef93e1461008d5780638da5cb5b146100b8578063b29c662a146100e3578063c4d66de81461010e578063f3fef3a31461013757610060565b3661006057005b005b34801561006e57600080fd5b50610077610160565b6040516100849190610614565b60405180910390f35b34801561009957600080fd5b506100a2610168565b6040516100af919061064a565b60405180910390f35b3480156100c457600080fd5b506100cd61017b565b6040516100da91906106a6565b60405180910390f35b3480156100ef57600080fd5b506100f86101a1565b60405161010591906106a6565b60405180910390f35b34801561011a57600080fd5b50610135600480360381019061013091906106f2565b6101c5565b005b34801561014357600080fd5b5061015e6004803603810190610159919061074b565b610379565b005b600047905090565b600160149054906101000a900460ff1681565b600160009054906101000a900473ffffffffffffffffffffffffffffffffffffffff1681565b60008054906101000a900473ffffffffffffffffffffffffffffffffffffffff1681565b600160009054906101000a900473ffffffffffffffffffffffffffffffffffffffff1673ffffffffffffffffffffffffffffffffffffffff163373ffffffffffffffffffffffffffffffffffffffff1614610255576040517f08c379a000000000000000000000000000000000000000000000000000000000815260040161024c906107e8565b60405180910390fd5b600073ffffffffffffffffffffffffffffffffffffffff168173ffffffffffffffffffffffffffffffffffffffff16036102c4576040517f08c379a00000000000000000000000000000000000000000000000000000000081526004016102bb90610854565b60405180910390fd5b600160149054906101000a900460ff1661037657806000806101000a81548173ffffffffffffffffffffffffffffffffffffffff021916908373ffffffffffffffffffffffffffffffffffffffff16021790555060018060146101000a81548160ff0219169083151502179055508073ffffffffffffffffffffffffffffffffffffffff167f908408e307fc569b417f6cbec5d5a06f44a0a505ac0479b47d421a4b2fd6a1e660405160405180910390a25b50565b60008054906101000a900473ffffffffffffffffffffffffffffffffffffffff1673ffffffffffffffffffffffffffffffffffffffff163373ffffffffffffffffffffffffffffffffffffffff1614610407576040517f08c379a00000000000000000000000000000000000000000000000000000000081526004016103fe906108c0565b60405180910390fd5b600073ffffffffffffffffffffffffffffffffffffffff168273ffffffffffffffffffffffffffffffffffffffff1603610476576040517f08c379a000000000000000000000000000000000000000000000000000000000815260040161046d9061092c565b60405180910390fd5b600081116104b9576040517f08c379a00000000000000000000000000000000000000000000000000000000081526004016104b090610998565b60405180910390fd5b478111156104fc576040517f08c379a00000000000000000000000000000000000000000000000000000000081526004016104f390610a04565b60405180910390fd5b60008273ffffffffffffffffffffffffffffffffffffffff168260405161052290610a55565b60006040518083038185875af1925050503d806000811461055f576040519150601f19603f3d011682016040523d82523d6000602084013e610564565b606091505b50509050806105a8576040517f08c379a000000000000000000000000000000000000000000000000000000000815260040161059f90610ab6565b60405180910390fd5b8273ffffffffffffffffffffffffffffffffffffffff167f7fcf532c15f0a6db0bd6d0e038bea71d30d808c7d98cb3bf7268a95bf5081b65836040516105ee9190610614565b60405180910390a2505050565b6000819050919050565b61060e816105fb565b82525050565b60006020820190506106296000830184610605565b92915050565b60008115159050919050565b6106448161062f565b82525050565b600060208201905061065f600083018461063b565b92915050565b600073ffffffffffffffffffffffffffffffffffffffff82169050919050565b600061069082610665565b9050919050565b6106a081610685565b82525050565b60006020820190506106bb6000830184610697565b92915050565b600080fd5b6106cf81610685565b81146106da57600080fd5b50565b6000813590506106ec816106c6565b92915050565b600060208284031215610708576107076106c1565b5b6000610716848285016106dd565b91505092915050565b610728816105fb565b811461073357600080fd5b50565b6000813590506107458161071f565b92915050565b60008060408385031215610762576107616106c1565b5b6000610770858286016106dd565b925050602061078185828601610736565b9150509250929050565b600082825260208201905092915050565b7f4f6e6c79206f776e65722063616e2063616c6c00000000000000000000000000600082015250565b60006107d260138361078b565b91506107dd8261079c565b602082019050919050565b60006020820190508181036000830152610801816107c5565b9050919050565b7f496e76616c6964206c6f74746572792061646472657373000000000000000000600082015250565b600061083e60178361078b565b915061084982610808565b602082019050919050565b6000602082019050818103600083015261086d81610831565b9050919050565b7f4f6e6c79206c6f74746572792063616e20776974686472617700000000000000600082015250565b60006108aa60198361078b565b91506108b582610874565b602082019050919050565b600060208201905081810360008301526108d98161089d565b9050919050565b7f496e76616c696420726563697069656e74000000000000000000000000000000600082015250565b600061091660118361078b565b9150610921826108e0565b602082019050919050565b6000602082019050818103600083015261094581610909565b9050919050565b7f416d6f756e74206d7573742062652067726561746572207468616e2030000000600082015250565b6000610982601d8361078b565b915061098d8261094c565b602082019050919050565b600060208201905081810360008301526109b181610975565b9050919050565b7f496e73756666696369656e742062616c616e6365000000000000000000000000600082015250565b60006109ee60148361078b565b91506109f9826109b8565b602082019050919050565b60006020820190508181036000830152610a1d816109e1565b9050919050565b600081905092915050565b50565b6000610a3f600083610a24565b9150610a4a82610a2f565b600082019050919050565b6000610a6082610a32565b9150819050919050565b7f5472616e73666572206661696c65640000000000000000000000000000000000600082015250565b6000610aa0600f8361078b565b9150610aab82610a6a565b602082019050919050565b60006020820190508181036000830152610acf81610a93565b905091905056fea2646970667358221220f6e6a6cc4514f2cadb81cd5d88fe86a1c48bd4040ef5e79478ed6d074b0d4f3a64736f6c63430008140033",
  "linkReferences": {},
  "deployedLinkReferences": {}
}