{
  "_format": "hh-sol-artifact-1",
  "contractName": "VaultWallet",
  "sourceName": "contracts/Vault.sol",
  "abi": [
    {
      "inputs": [],
      "stateMutability": "payable",
      "type": "constructor"
    },
    {
      "anonymous": false,
      "inputs": [
        {
          "indexed": true,
          "internalType": "address",
          "name": "lotteryContract",
          "type": "address"
        }
      ],
      "name": "Initialized",
      "type": "event"
    },
    {
      "anonymous": false,
      "inputs": [
        {
          "indexed": true,
          "internalType": "address",
          "name": "to",
          "type": "address"
        },
        {
          "indexed": false,
          "internalType": "uint256",
          "name": "amount",
          "type": "uint256"
        }
      ],
      "name": "Withdrawal",
      "type": "event"
    },
    {
      "stateMutability": "payable",
      "type": "fallback"
    },
    {
      "inputs": [],
      "name": "getBalance",
      "outputs": [
        {
          "internalType": "uint256",
          "name": "",
          "type": "uint256"
        }
      ],
      "stateMutability": "view",
      "type": "function"
    },
    {
      "inputs": [
        {
          "internalType": "address",
          "name": "_lotteryContract",
          "type": "address"
        }
      ],
      "name": "initialize",
      "outputs": [],
      "stateMutability": "nonpayable",
      "type": "function"
    },
    {
      "inputs": [],
      "name": "initialized",
      "outputs": [
        {
          "internalType": "bool",
          "name": "",
          "type": "bool"
        }
      ],
      "stateMutability": "view",
      "type": "function"
    },
    {
      "inputs": [],
      "name": "lotteryContract",
      "outputs": [
        {
          "internalType": "address",
          "name": "",
          "type": "address"
        }
      ],
      "stateMutability": "view",
      "type": "function"
    },
    {
      "inputs": [],
      "name": "owner",
      "outputs": [
        {
          "internalType": "address",
          "name": "",
          "type": "address"
        }
      ],
      "stateMutability": "view",
      "type": "function"
    },
    {
      "inputs": [
        {
          "internalType": "address",
          "name": "winner",
          "type": "address"
        },
        {
          "internalType": "uint256",
          "name": "amount",
          "type": "uint256"
        }
      ],
      "name": "withdraw",
      "outputs": [],
      "stateMutability": "nonpayable",
      "type": "function"
    },
    {
      "stateMutability": "payable",
      "type": "receive"
    }
  ],
  "bytecode": "0x608060405233600160006101000a81548173ffffffffffffffffffffffffffffffffffffffff021916908373ffffffffffffffffffffffffffffffffffffffff160217905550610b55806100546000396000f3fe6080604052600436106100595760003560e01c806312065fe014610062578063158ef93e1461008d5780638da5cb5b146100b8578063b29c662a146100e3578063c4d66de81461010e578063f3fef3a31461013757610060565b3661006057005b005b34801561006e57600080fd5b50610077610160565b604051610084919061065d565b60405180910390f35b34801561009957600080fd5b506100a2610168565b6040516100af9190610693565b60405180910390f35b3480156100c457600080fd5b506100cd61017b565b6040516100da91906106ef565b60405180910390f35b3480156100ef57600080fd5b506100f86101a1565b60405161010591906106ef565b60405180910390f35b34801561011a57600080fd5b506101356004803603810190610130919061073b565b6101c5565b005b34801561014357600080fd5b5061015e60048036038101906101599190610794565b6103c2565b005b600047905090565b600160149054906101000a900460ff1681565b600160009054906101000a900473ffffffffffffffffffffffffffffffffffffffff1681565b60008054906101000a900473ffffffffffffffffffffffffffffffffffffffff1681565b600160009054906101000a900473ffffffffffffffffffffffffffffffffffffffff1673ffffffffffffffffffffffffffffffffffffffff163373ffffffffffffffffffffffffffffffffffffffff1614610255576040517f08c379a000000000000000000000000000000000000000000000000000000000815260040161024c90610831565b60405180910390fd5b600073ffffffffffffffffffffffffffffffffffffffff168173ffffffffffffffffffffffffffffffffffffffff16036102c4576040517f08c379a00000000000000000000000000000000000000000000000000000000081526004016102bb9061089d565b60405180910390fd5b600160149054906101000a900460ff1615610321578073ffffffffffffffffffffffffffffffffffffffff167f908408e307fc569b417f6cbec5d5a06f44a0a505ac0479b47d421a4b2fd6a1e660405160405180910390a26103bf565b806000806101000a81548173ffffffffffffffffffffffffffffffffffffffff021916908373ffffffffffffffffffffffffffffffffffffffff16021790555060018060146101000a81548160ff0219169083151502179055508073ffffffffffffffffffffffffffffffffffffffff167f908408e307fc569b417f6cbec5d5a06f44a0a505ac0479b47d421a4b2fd6a1e660405160405180910390a25b50565b60008054906101000a900473ffffffffffffffffffffffffffffffffffffffff1673ffffffffffffffffffffffffffffffffffffffff163373ffffffffffffffffffffffffffffffffffffffff1614610450576040517f08c379a000000000000000000000000000000000000000000000000000000000815260040161044790610909565b60405180910390fd5b600073ffffffffffffffffffffffffffffffffffffffff168273ffffffffffffffffffffffffffffffffffffffff16036104bf576040517f08c379a00000000000000000000000000000000000000000000000000000000081526004016104b690610975565b60405180910390fd5b60008111610502576040517f08c379a00000000000000000000000000000000000000000000000000000000081526004016104f9906109e1565b60405180910390fd5b47811115610545576040517f08c379a000000000000000000000000000000000000000000000000000000000815260040161053c90610a4d565b60405180910390fd5b60008273ffffffffffffffffffffffffffffffffffffffff168260405161056b90610a9e565b60006040518083038185875af1925050503d80600081146105a8576040519150601f19603f3d011682016040523d82523d6000602084013e6105ad565b606091505b50509050806105f1576040517f08c379a00000000000000000000000000000000000000000000000000000000081526004016105e890610aff565b60405180910390fd5b8273ffffffffffffffffffffffffffffffffffffffff167f7fcf532c15f0a6db0bd6d0e038bea71d30d808c7d98cb3bf7268a95bf5081b6583604051610637919061065d565b60405180910390a2505050565b6000819050919050565b61065781610644565b82525050565b6000602082019050610672600083018461064e565b92915050565b60008115159050919050565b61068d81610678565b82525050565b60006020820190506106a86000830184610684565b92915050565b600073ffffffffffffffffffffffffffffffffffffffff82169050919050565b60006106d9826106ae565b9050919050565b6106e9816106ce565b82525050565b600060208201905061070460008301846106e0565b92915050565b600080fd5b610718816106ce565b811461072357600080fd5b50565b6000813590506107358161070f565b92915050565b6000602082840312156107515761075061070a565b5b600061075f84828501610726565b91505092915050565b61077181610644565b811461077c57600080fd5b50565b60008135905061078e81610768565b92915050565b600080604083850312156107ab576107aa61070a565b5b60006107b985828601610726565b92505060206107ca8582860161077f565b9150509250929050565b600082825260208201905092915050565b7f4f6e6c79206f776e65722063616e2063616c6c00000000000000000000000000600082015250565b600061081b6013836107d4565b9150610826826107e5565b602082019050919050565b6000602082019050818103600083015261084a8161080e565b9050919050565b7f496e76616c6964206c6f74746572792061646472657373000000000000000000600082015250565b60006108876017836107d4565b915061089282610851565b602082019050919050565b600060208201905081810360008301526108b68161087a565b9050919050565b7f4f6e6c79206c6f74746572792063616e20776974686472617700000000000000600082015250565b60006108f36019836107d4565b91506108fe826108bd565b602082019050919050565b60006020820190508181036000830152610922816108e6565b9050919050565b7f496e76616c696420726563697069656e74000000000000000000000000000000600082015250565b600061095f6011836107d4565b915061096a82610929565b602082019050919050565b6000602082019050818103600083015261098e81610952565b9050919050565b7f416d6f756e74206d7573742062652067726561746572207468616e2030000000600082015250565b60006109cb601d836107d4565b91506109d682610995565b602082019050919050565b600060208201905081810360008301526109fa816109be565b9050919050565b7f496e73756666696369656e742062616c616e6365000000000000000000000000600082015250565b6000610a376014836107d4565b9150610a4282610a01565b602082019050919050565b60006020820190508181036000830152610a6681610a2a565b9050919050565b600081905092915050565b50565b6000610a88600083610a6d565b9150610a9382610a78565b600082019050919050565b6000610aa982610a7b565b9150819050919050565b7f5472616e73666572206661696c65640000000000000000000000000000000000600082015250565b6000610ae9600f836107d4565b9150610af482610ab3565b602082019050919050565b60006020820190508181036000830152610b1881610adc565b905091905056fea264697066735822122012e8dc0db59a861db268a57ac36f785e5813ad31498eb2cf4e49b9d749a9b12264736f6c63430008140033",
  "linkReferences": {},
  "deployedLinkReferences": {}
}